{
  "_format": "hh-sol-artifact-1",
  "contractName": "CollectionM",
  "sourceName": "contracts/CollectionM.sol",
  "abi": [
    {
      "inputs": [
        {
          "internalType": "string",
          "name": "_baseURI",
          "type": "string"
        },
        {
          "internalType": "uint256",
          "name": "_NFTQuantity",
          "type": "uint256"
        },
        {
          "internalType": "address",
          "name": "_fundationAddress",
          "type": "address"
        },
        {
          "internalType": "uint256",
          "name": "_nftPrice",
          "type": "uint256"
        }
      ],
      "stateMutability": "nonpayable",
      "type": "constructor"
    },
    {
      "anonymous": false,
      "inputs": [
        {
          "indexed": true,
          "internalType": "address",
          "name": "owner",
          "type": "address"
        },
        {
          "indexed": true,
          "internalType": "address",
          "name": "approved",
          "type": "address"
        },
        {
          "indexed": true,
          "internalType": "uint256",
          "name": "tokenId",
          "type": "uint256"
        }
      ],
      "name": "Approval",
      "type": "event"
    },
    {
      "anonymous": false,
      "inputs": [
        {
          "indexed": true,
          "internalType": "address",
          "name": "owner",
          "type": "address"
        },
        {
          "indexed": true,
          "internalType": "address",
          "name": "operator",
          "type": "address"
        },
        {
          "indexed": false,
          "internalType": "bool",
          "name": "approved",
          "type": "bool"
        }
      ],
      "name": "ApprovalForAll",
      "type": "event"
    },
    {
      "anonymous": false,
      "inputs": [
        {
          "indexed": true,
          "internalType": "address",
          "name": "user",
          "type": "address"
        },
        {
          "indexed": false,
          "internalType": "uint256",
          "name": "price",
          "type": "uint256"
        },
        {
          "indexed": false,
          "internalType": "string",
          "name": "tokenURI",
          "type": "string"
        },
        {
          "indexed": false,
          "internalType": "uint256",
          "name": "timeStamp",
          "type": "uint256"
        }
      ],
      "name": "Minted",
      "type": "event"
    },
    {
      "anonymous": false,
      "inputs": [
        {
          "indexed": true,
          "internalType": "address",
          "name": "previousOwner",
          "type": "address"
        },
        {
          "indexed": true,
          "internalType": "address",
          "name": "newOwner",
          "type": "address"
        }
      ],
      "name": "OwnershipTransferred",
      "type": "event"
    },
    {
      "anonymous": false,
      "inputs": [
        {
          "indexed": true,
          "internalType": "address",
          "name": "from",
          "type": "address"
        },
        {
          "indexed": true,
          "internalType": "address",
          "name": "to",
          "type": "address"
        },
        {
          "indexed": true,
          "internalType": "uint256",
          "name": "tokenId",
          "type": "uint256"
        }
      ],
      "name": "Transfer",
      "type": "event"
    },
    {
      "inputs": [],
      "name": "NFTQuantity",
      "outputs": [
        {
          "internalType": "uint256",
          "name": "",
          "type": "uint256"
        }
      ],
      "stateMutability": "view",
      "type": "function"
    },
    {
      "inputs": [
        {
          "internalType": "address",
          "name": "to",
          "type": "address"
        },
        {
          "internalType": "uint256",
          "name": "tokenId",
          "type": "uint256"
        }
      ],
      "name": "approve",
      "outputs": [],
      "stateMutability": "nonpayable",
      "type": "function"
    },
    {
      "inputs": [
        {
          "internalType": "address",
          "name": "owner",
          "type": "address"
        }
      ],
      "name": "balanceOf",
      "outputs": [
        {
          "internalType": "uint256",
          "name": "",
          "type": "uint256"
        }
      ],
      "stateMutability": "view",
      "type": "function"
    },
    {
      "inputs": [],
      "name": "baseURI",
      "outputs": [
        {
          "internalType": "string",
          "name": "",
          "type": "string"
        }
      ],
      "stateMutability": "view",
      "type": "function"
    },
    {
      "inputs": [
        {
          "internalType": "uint256",
          "name": "tokenId",
          "type": "uint256"
        }
      ],
      "name": "getApproved",
      "outputs": [
        {
          "internalType": "address",
          "name": "",
          "type": "address"
        }
      ],
      "stateMutability": "view",
      "type": "function"
    },
    {
      "inputs": [
        {
          "internalType": "address",
          "name": "owner",
          "type": "address"
        },
        {
          "internalType": "address",
          "name": "operator",
          "type": "address"
        }
      ],
      "name": "isApprovedForAll",
      "outputs": [
        {
          "internalType": "bool",
          "name": "",
          "type": "bool"
        }
      ],
      "stateMutability": "view",
      "type": "function"
    },
    {
      "inputs": [],
      "name": "mint",
      "outputs": [],
      "stateMutability": "payable",
      "type": "function"
    },
    {
      "inputs": [],
      "name": "name",
      "outputs": [
        {
          "internalType": "string",
          "name": "",
          "type": "string"
        }
      ],
      "stateMutability": "view",
      "type": "function"
    },
    {
      "inputs": [],
      "name": "nftPrice",
      "outputs": [
        {
          "internalType": "uint256",
          "name": "",
          "type": "uint256"
        }
      ],
      "stateMutability": "view",
      "type": "function"
    },
    {
      "inputs": [],
      "name": "owner",
      "outputs": [
        {
          "internalType": "address",
          "name": "",
          "type": "address"
        }
      ],
      "stateMutability": "view",
      "type": "function"
    },
    {
      "inputs": [
        {
          "internalType": "uint256",
          "name": "tokenId",
          "type": "uint256"
        }
      ],
      "name": "ownerOf",
      "outputs": [
        {
          "internalType": "address",
          "name": "",
          "type": "address"
        }
      ],
      "stateMutability": "view",
      "type": "function"
    },
    {
      "inputs": [],
      "name": "renounceOwnership",
      "outputs": [],
      "stateMutability": "nonpayable",
      "type": "function"
    },
    {
      "inputs": [
        {
          "internalType": "address",
          "name": "from",
          "type": "address"
        },
        {
          "internalType": "address",
          "name": "to",
          "type": "address"
        },
        {
          "internalType": "uint256",
          "name": "tokenId",
          "type": "uint256"
        }
      ],
      "name": "safeTransferFrom",
      "outputs": [],
      "stateMutability": "nonpayable",
      "type": "function"
    },
    {
      "inputs": [
        {
          "internalType": "address",
          "name": "from",
          "type": "address"
        },
        {
          "internalType": "address",
          "name": "to",
          "type": "address"
        },
        {
          "internalType": "uint256",
          "name": "tokenId",
          "type": "uint256"
        },
        {
          "internalType": "bytes",
          "name": "_data",
          "type": "bytes"
        }
      ],
      "name": "safeTransferFrom",
      "outputs": [],
      "stateMutability": "nonpayable",
      "type": "function"
    },
    {
      "inputs": [
        {
          "internalType": "address",
          "name": "operator",
          "type": "address"
        },
        {
          "internalType": "bool",
          "name": "approved",
          "type": "bool"
        }
      ],
      "name": "setApprovalForAll",
      "outputs": [],
      "stateMutability": "nonpayable",
      "type": "function"
    },
    {
      "inputs": [
        {
          "internalType": "string",
          "name": "_newBaseURI",
          "type": "string"
        },
        {
          "internalType": "uint256",
          "name": "_newNFTQuantity",
          "type": "uint256"
        }
      ],
      "name": "setBaseURI",
      "outputs": [],
      "stateMutability": "nonpayable",
      "type": "function"
    },
    {
      "inputs": [
        {
          "internalType": "uint256",
          "name": "_nftPrice",
          "type": "uint256"
        }
      ],
      "name": "setNftPrice",
      "outputs": [],
      "stateMutability": "nonpayable",
      "type": "function"
    },
    {
      "inputs": [
        {
          "internalType": "bytes4",
          "name": "interfaceId",
          "type": "bytes4"
        }
      ],
      "name": "supportsInterface",
      "outputs": [
        {
          "internalType": "bool",
          "name": "",
          "type": "bool"
        }
      ],
      "stateMutability": "view",
      "type": "function"
    },
    {
      "inputs": [],
      "name": "symbol",
      "outputs": [
        {
          "internalType": "string",
          "name": "",
          "type": "string"
        }
      ],
      "stateMutability": "view",
      "type": "function"
    },
    {
      "inputs": [
        {
          "internalType": "uint256",
          "name": "index",
          "type": "uint256"
        }
      ],
      "name": "tokenByIndex",
      "outputs": [
        {
          "internalType": "uint256",
          "name": "",
          "type": "uint256"
        }
      ],
      "stateMutability": "view",
      "type": "function"
    },
    {
      "inputs": [
        {
          "internalType": "uint256",
          "name": "",
          "type": "uint256"
        }
      ],
      "name": "tokenIdToURI",
      "outputs": [
        {
          "internalType": "string",
          "name": "",
          "type": "string"
        }
      ],
      "stateMutability": "view",
      "type": "function"
    },
    {
      "inputs": [
        {
          "internalType": "address",
          "name": "owner",
          "type": "address"
        },
        {
          "internalType": "uint256",
          "name": "index",
          "type": "uint256"
        }
      ],
      "name": "tokenOfOwnerByIndex",
      "outputs": [
        {
          "internalType": "uint256",
          "name": "",
          "type": "uint256"
        }
      ],
      "stateMutability": "view",
      "type": "function"
    },
    {
      "inputs": [
        {
          "internalType": "uint256",
          "name": "_tokenId",
          "type": "uint256"
        }
      ],
      "name": "tokenURI",
      "outputs": [
        {
          "internalType": "string",
          "name": "",
          "type": "string"
        }
      ],
      "stateMutability": "view",
      "type": "function"
    },
    {
      "inputs": [],
      "name": "totalSupply",
      "outputs": [
        {
          "internalType": "uint256",
          "name": "",
          "type": "uint256"
        }
      ],
      "stateMutability": "view",
      "type": "function"
    },
    {
      "inputs": [
        {
          "internalType": "address",
          "name": "from",
          "type": "address"
        },
        {
          "internalType": "address",
          "name": "to",
          "type": "address"
        },
        {
          "internalType": "uint256",
          "name": "tokenId",
          "type": "uint256"
        }
      ],
      "name": "transferFrom",
      "outputs": [],
      "stateMutability": "nonpayable",
      "type": "function"
    },
    {
      "inputs": [
        {
          "internalType": "address",
          "name": "newOwner",
          "type": "address"
        }
      ],
      "name": "transferOwnership",
      "outputs": [],
      "stateMutability": "nonpayable",
      "type": "function"
    }
  ],
  "bytecode": "0x60806040523480156200001157600080fd5b50604051620042b2380380620042b2833981810160405281019062000037919062000524565b6040518060400160405280600381526020017f4d444d00000000000000000000000000000000000000000000000000000000008152506040518060400160405280600381526020017f4d444d00000000000000000000000000000000000000000000000000000000008152508160009080519060200190620000bb92919062000237565b508060019080519060200190620000d492919062000237565b505050620000f7620000eb6200016960201b60201c565b6200017160201b60201c565b83600c90805190602001906200010f92919062000237565b5082600d8190555081600f60006101000a81548173ffffffffffffffffffffffffffffffffffffffff021916908373ffffffffffffffffffffffffffffffffffffffff16021790555080600e81905550505050506200061a565b600033905090565b6000600a60009054906101000a900473ffffffffffffffffffffffffffffffffffffffff16905081600a60006101000a81548173ffffffffffffffffffffffffffffffffffffffff021916908373ffffffffffffffffffffffffffffffffffffffff1602179055508173ffffffffffffffffffffffffffffffffffffffff168173ffffffffffffffffffffffffffffffffffffffff167f8be0079c531659141344cd1fd0a4f28419497f9722a3daafe3b4186f6b6457e060405160405180910390a35050565b8280546200024590620005e4565b90600052602060002090601f016020900481019282620002695760008555620002b5565b82601f106200028457805160ff1916838001178555620002b5565b82800160010185558215620002b5579182015b82811115620002b457825182559160200191906001019062000297565b5b509050620002c49190620002c8565b5090565b5b80821115620002e3576000816000905550600101620002c9565b5090565b6000604051905090565b600080fd5b600080fd5b600080fd5b600080fd5b6000601f19601f8301169050919050565b7f4e487b7100000000000000000000000000000000000000000000000000000000600052604160045260246000fd5b620003508262000305565b810181811067ffffffffffffffff8211171562000372576200037162000316565b5b80604052505050565b600062000387620002e7565b905062000395828262000345565b919050565b600067ffffffffffffffff821115620003b857620003b762000316565b5b620003c38262000305565b9050602081019050919050565b60005b83811015620003f0578082015181840152602081019050620003d3565b8381111562000400576000848401525b50505050565b60006200041d62000417846200039a565b6200037b565b9050828152602081018484840111156200043c576200043b62000300565b5b62000449848285620003d0565b509392505050565b600082601f830112620004695762000468620002fb565b5b81516200047b84826020860162000406565b91505092915050565b6000819050919050565b620004998162000484565b8114620004a557600080fd5b50565b600081519050620004b9816200048e565b92915050565b600073ffffffffffffffffffffffffffffffffffffffff82169050919050565b6000620004ec82620004bf565b9050919050565b620004fe81620004df565b81146200050a57600080fd5b50565b6000815190506200051e81620004f3565b92915050565b60008060008060808587031215620005415762000540620002f1565b5b600085015167ffffffffffffffff811115620005625762000561620002f6565b5b620005708782880162000451565b94505060206200058387828801620004a8565b935050604062000596878288016200050d565b9250506060620005a987828801620004a8565b91505092959194509250565b7f4e487b7100000000000000000000000000000000000000000000000000000000600052602260045260246000fd5b60006002820490506001821680620005fd57607f821691505b60208210811415620006145762000613620005b5565b5b50919050565b613c88806200062a6000396000f3fe6080604052600436106101805760003560e01c8063571a8e53116100d15780638da5cb5b1161008a578063b88d4fde11610064578063b88d4fde14610574578063c87b56dd1461059d578063e985e9c5146105da578063f2fde38b1461061757610180565b80638da5cb5b146104f557806395d89b4114610520578063a22cb4651461054b57610180565b8063571a8e53146103e55780636352211e146104105780636c0360eb1461044d57806370a0823114610478578063715018a6146104b55780637d9a7a4c146104cc57610180565b80630d39fc811161013e57806323b872dd1161011857806323b872dd146103195780632f745c591461034257806342842e0e1461037f5780634f6ccce7146103a857610180565b80630d39fc81146102b95780631249c58b146102e457806318160ddd146102ee57610180565b80629f25ff1461018557806301ffc9a7146101ae5780630221e785146101eb57806306fdde0314610228578063081812fc14610253578063095ea7b314610290575b600080fd5b34801561019157600080fd5b506101ac60048036038101906101a791906127f5565b610640565b005b3480156101ba57600080fd5b506101d560048036038101906101d091906128a9565b6106e6565b6040516101e291906128f1565b60405180910390f35b3480156101f757600080fd5b50610212600480360381019061020d919061290c565b6106f8565b60405161021f91906129c1565b60405180910390f35b34801561023457600080fd5b5061023d610798565b60405161024a91906129c1565b60405180910390f35b34801561025f57600080fd5b5061027a6004803603810190610275919061290c565b61082a565b6040516102879190612a24565b60405180910390f35b34801561029c57600080fd5b506102b760048036038101906102b29190612a6b565b6108af565b005b3480156102c557600080fd5b506102ce6109c7565b6040516102db9190612aba565b60405180910390f35b6102ec6109cd565b005b3480156102fa57600080fd5b50610303610b45565b6040516103109190612aba565b60405180910390f35b34801561032557600080fd5b50610340600480360381019061033b9190612ad5565b610b52565b005b34801561034e57600080fd5b5061036960048036038101906103649190612a6b565b610bb2565b6040516103769190612aba565b60405180910390f35b34801561038b57600080fd5b506103a660048036038101906103a19190612ad5565b610c57565b005b3480156103b457600080fd5b506103cf60048036038101906103ca919061290c565b610c77565b6040516103dc9190612aba565b60405180910390f35b3480156103f157600080fd5b506103fa610ce8565b6040516104079190612aba565b60405180910390f35b34801561041c57600080fd5b506104376004803603810190610432919061290c565b610cee565b6040516104449190612a24565b60405180910390f35b34801561045957600080fd5b50610462610da0565b60405161046f91906129c1565b60405180910390f35b34801561048457600080fd5b5061049f600480360381019061049a9190612b28565b610e2e565b6040516104ac9190612aba565b60405180910390f35b3480156104c157600080fd5b506104ca610ee6565b005b3480156104d857600080fd5b506104f360048036038101906104ee919061290c565b610f6e565b005b34801561050157600080fd5b5061050a610ff4565b6040516105179190612a24565b60405180910390f35b34801561052c57600080fd5b5061053561101e565b60405161054291906129c1565b60405180910390f35b34801561055757600080fd5b50610572600480360381019061056d9190612b81565b6110b0565b005b34801561058057600080fd5b5061059b60048036038101906105969190612c62565b6110c6565b005b3480156105a957600080fd5b506105c460048036038101906105bf919061290c565b611128565b6040516105d191906129c1565b60405180910390f35b3480156105e657600080fd5b5061060160048036038101906105fc9190612ce5565b6111cd565b60405161060e91906128f1565b60405180910390f35b34801561062357600080fd5b5061063e60048036038101906106399190612b28565b611261565b005b610648611359565b73ffffffffffffffffffffffffffffffffffffffff16610666610ff4565b73ffffffffffffffffffffffffffffffffffffffff16146106bc576040517f08c379a00000000000000000000000000000000000000000000000000000000081526004016106b390612d71565b60405180910390fd5b81600c90805190602001906106d29291906125c2565b5080600d8190555060006010819055505050565b60006106f182611361565b9050919050565b600b602052806000526040600020600091509050805461071790612dc0565b80601f016020809104026020016040519081016040528092919081815260200182805461074390612dc0565b80156107905780601f1061076557610100808354040283529160200191610790565b820191906000526020600020905b81548152906001019060200180831161077357829003601f168201915b505050505081565b6060600080546107a790612dc0565b80601f01602080910402602001604051908101604052809291908181526020018280546107d390612dc0565b80156108205780601f106107f557610100808354040283529160200191610820565b820191906000526020600020905b81548152906001019060200180831161080357829003601f168201915b5050505050905090565b6000610835826113db565b610874576040517f08c379a000000000000000000000000000000000000000000000000000000000815260040161086b90612e64565b60405180910390fd5b6004600083815260200190815260200160002060009054906101000a900473ffffffffffffffffffffffffffffffffffffffff169050919050565b60006108ba82610cee565b90508073ffffffffffffffffffffffffffffffffffffffff168373ffffffffffffffffffffffffffffffffffffffff16141561092b576040517f08c379a000000000000000000000000000000000000000000000000000000000815260040161092290612ef6565b60405180910390fd5b8073ffffffffffffffffffffffffffffffffffffffff1661094a611359565b73ffffffffffffffffffffffffffffffffffffffff161480610979575061097881610973611359565b6111cd565b5b6109b8576040517f08c379a00000000000000000000000000000000000000000000000000000000081526004016109af90612f88565b60405180910390fd5b6109c28383611447565b505050565b600e5481565b600d5460105410610a13576040517f08c379a0000000000000000000000000000000000000000000000000000000008152600401610a0a90612ff4565b60405180910390fd5b600e54341015610a58576040517f08c379a0000000000000000000000000000000000000000000000000000000008152600401610a4f90613086565b60405180910390fd5b60106000815480929190610a6b906130d5565b919050555060006001610a7c610b45565b610a86919061311e565b90506000610a9382611500565b9050610a9f3383611661565b6000600c82604051602001610ab59291906132dc565b604051602081830303815290604052905080600b60008581526020019081526020016000209080519060200190610aed9291906125c2565b503373ffffffffffffffffffffffffffffffffffffffff167ff5c82eda717141c5f0cfeb894e7b7819c158a337b62ec13d412aecad30b0ad9e348342604051610b3893929190613316565b60405180910390a2505050565b6000600880549050905090565b610b63610b5d611359565b8261167f565b610ba2576040517f08c379a0000000000000000000000000000000000000000000000000000000008152600401610b99906133c6565b60405180910390fd5b610bad83838361175d565b505050565b6000610bbd83610e2e565b8210610bfe576040517f08c379a0000000000000000000000000000000000000000000000000000000008152600401610bf590613458565b60405180910390fd5b600660008473ffffffffffffffffffffffffffffffffffffffff1673ffffffffffffffffffffffffffffffffffffffff168152602001908152602001600020600083815260200190815260200160002054905092915050565b610c72838383604051806020016040528060008152506110c6565b505050565b6000610c81610b45565b8210610cc2576040517f08c379a0000000000000000000000000000000000000000000000000000000008152600401610cb9906134ea565b60405180910390fd5b60088281548110610cd657610cd561350a565b5b90600052602060002001549050919050565b600d5481565b6000806002600084815260200190815260200160002060009054906101000a900473ffffffffffffffffffffffffffffffffffffffff169050600073ffffffffffffffffffffffffffffffffffffffff168173ffffffffffffffffffffffffffffffffffffffff161415610d97576040517f08c379a0000000000000000000000000000000000000000000000000000000008152600401610d8e906135ab565b60405180910390fd5b80915050919050565b600c8054610dad90612dc0565b80601f0160208091040260200160405190810160405280929190818152602001828054610dd990612dc0565b8015610e265780601f10610dfb57610100808354040283529160200191610e26565b820191906000526020600020905b815481529060010190602001808311610e0957829003601f168201915b505050505081565b60008073ffffffffffffffffffffffffffffffffffffffff168273ffffffffffffffffffffffffffffffffffffffff161415610e9f576040517f08c379a0000000000000000000000000000000000000000000000000000000008152600401610e969061363d565b60405180910390fd5b600360008373ffffffffffffffffffffffffffffffffffffffff1673ffffffffffffffffffffffffffffffffffffffff168152602001908152602001600020549050919050565b610eee611359565b73ffffffffffffffffffffffffffffffffffffffff16610f0c610ff4565b73ffffffffffffffffffffffffffffffffffffffff1614610f62576040517f08c379a0000000000000000000000000000000000000000000000000000000008152600401610f5990612d71565b60405180910390fd5b610f6c60006119c4565b565b610f76611359565b73ffffffffffffffffffffffffffffffffffffffff16610f94610ff4565b73ffffffffffffffffffffffffffffffffffffffff1614610fea576040517f08c379a0000000000000000000000000000000000000000000000000000000008152600401610fe190612d71565b60405180910390fd5b80600e8190555050565b6000600a60009054906101000a900473ffffffffffffffffffffffffffffffffffffffff16905090565b60606001805461102d90612dc0565b80601f016020809104026020016040519081016040528092919081815260200182805461105990612dc0565b80156110a65780601f1061107b576101008083540402835291602001916110a6565b820191906000526020600020905b81548152906001019060200180831161108957829003601f168201915b5050505050905090565b6110c26110bb611359565b8383611a8a565b5050565b6110d76110d1611359565b8361167f565b611116576040517f08c379a000000000000000000000000000000000000000000000000000000000815260040161110d906133c6565b60405180910390fd5b61112284848484611bf7565b50505050565b6060600b6000838152602001908152602001600020805461114890612dc0565b80601f016020809104026020016040519081016040528092919081815260200182805461117490612dc0565b80156111c15780601f10611196576101008083540402835291602001916111c1565b820191906000526020600020905b8154815290600101906020018083116111a457829003601f168201915b50505050509050919050565b6000600560008473ffffffffffffffffffffffffffffffffffffffff1673ffffffffffffffffffffffffffffffffffffffff16815260200190815260200160002060008373ffffffffffffffffffffffffffffffffffffffff1673ffffffffffffffffffffffffffffffffffffffff16815260200190815260200160002060009054906101000a900460ff16905092915050565b611269611359565b73ffffffffffffffffffffffffffffffffffffffff16611287610ff4565b73ffffffffffffffffffffffffffffffffffffffff16146112dd576040517f08c379a00000000000000000000000000000000000000000000000000000000081526004016112d490612d71565b60405180910390fd5b600073ffffffffffffffffffffffffffffffffffffffff168173ffffffffffffffffffffffffffffffffffffffff16141561134d576040517f08c379a0000000000000000000000000000000000000000000000000000000008152600401611344906136cf565b60405180910390fd5b611356816119c4565b50565b600033905090565b60007f780e9d63000000000000000000000000000000000000000000000000000000007bffffffffffffffffffffffffffffffffffffffffffffffffffffffff1916827bffffffffffffffffffffffffffffffffffffffffffffffffffffffff191614806113d457506113d382611c53565b5b9050919050565b60008073ffffffffffffffffffffffffffffffffffffffff166002600084815260200190815260200160002060009054906101000a900473ffffffffffffffffffffffffffffffffffffffff1673ffffffffffffffffffffffffffffffffffffffff1614159050919050565b816004600083815260200190815260200160002060006101000a81548173ffffffffffffffffffffffffffffffffffffffff021916908373ffffffffffffffffffffffffffffffffffffffff160217905550808273ffffffffffffffffffffffffffffffffffffffff166114ba83610cee565b73ffffffffffffffffffffffffffffffffffffffff167f8c5be1e5ebec7d5bd14f71427d1e84f3dd0314c0f7b2291e5b200ac8c7c3b92560405160405180910390a45050565b60606000821415611548576040518060400160405280600181526020017f3000000000000000000000000000000000000000000000000000000000000000815250905061165c565b600082905060005b6000821461157a578080611563906130d5565b915050600a82611573919061371e565b9150611550565b60008167ffffffffffffffff81111561159657611595612694565b5b6040519080825280601f01601f1916602001820160405280156115c85781602001600182028036833780820191505090505b5090505b60008514611655576001826115e1919061374f565b9150600a856115f09190613783565b60306115fc919061311e565b60f81b8183815181106116125761161161350a565b5b60200101907effffffffffffffffffffffffffffffffffffffffffffffffffffffffffffff1916908160001a905350600a8561164e919061371e565b94506115cc565b8093505050505b919050565b61167b828260405180602001604052806000815250611d35565b5050565b600061168a826113db565b6116c9576040517f08c379a00000000000000000000000000000000000000000000000000000000081526004016116c090613826565b60405180910390fd5b60006116d483610cee565b90508073ffffffffffffffffffffffffffffffffffffffff168473ffffffffffffffffffffffffffffffffffffffff16148061174357508373ffffffffffffffffffffffffffffffffffffffff1661172b8461082a565b73ffffffffffffffffffffffffffffffffffffffff16145b80611754575061175381856111cd565b5b91505092915050565b8273ffffffffffffffffffffffffffffffffffffffff1661177d82610cee565b73ffffffffffffffffffffffffffffffffffffffff16146117d3576040517f08c379a00000000000000000000000000000000000000000000000000000000081526004016117ca906138b8565b60405180910390fd5b600073ffffffffffffffffffffffffffffffffffffffff168273ffffffffffffffffffffffffffffffffffffffff161415611843576040517f08c379a000000000000000000000000000000000000000000000000000000000815260040161183a9061394a565b60405180910390fd5b61184e838383611d90565b611859600082611447565b6001600360008573ffffffffffffffffffffffffffffffffffffffff1673ffffffffffffffffffffffffffffffffffffffff16815260200190815260200160002060008282546118a9919061374f565b925050819055506001600360008473ffffffffffffffffffffffffffffffffffffffff1673ffffffffffffffffffffffffffffffffffffffff1681526020019081526020016000206000828254611900919061311e565b92505081905550816002600083815260200190815260200160002060006101000a81548173ffffffffffffffffffffffffffffffffffffffff021916908373ffffffffffffffffffffffffffffffffffffffff160217905550808273ffffffffffffffffffffffffffffffffffffffff168473ffffffffffffffffffffffffffffffffffffffff167fddf252ad1be2c89b69c2b068fc378daa952ba7f163c4a11628f55a4df523b3ef60405160405180910390a46119bf838383611da0565b505050565b6000600a60009054906101000a900473ffffffffffffffffffffffffffffffffffffffff16905081600a60006101000a81548173ffffffffffffffffffffffffffffffffffffffff021916908373ffffffffffffffffffffffffffffffffffffffff1602179055508173ffffffffffffffffffffffffffffffffffffffff168173ffffffffffffffffffffffffffffffffffffffff167f8be0079c531659141344cd1fd0a4f28419497f9722a3daafe3b4186f6b6457e060405160405180910390a35050565b8173ffffffffffffffffffffffffffffffffffffffff168373ffffffffffffffffffffffffffffffffffffffff161415611af9576040517f08c379a0000000000000000000000000000000000000000000000000000000008152600401611af0906139b6565b60405180910390fd5b80600560008573ffffffffffffffffffffffffffffffffffffffff1673ffffffffffffffffffffffffffffffffffffffff16815260200190815260200160002060008473ffffffffffffffffffffffffffffffffffffffff1673ffffffffffffffffffffffffffffffffffffffff16815260200190815260200160002060006101000a81548160ff0219169083151502179055508173ffffffffffffffffffffffffffffffffffffffff168373ffffffffffffffffffffffffffffffffffffffff167f17307eab39ab6107e8899845ad3d59bd9653f200f220920489ca2b5937696c3183604051611bea91906128f1565b60405180910390a3505050565b611c0284848461175d565b611c0e84848484611da5565b611c4d576040517f08c379a0000000000000000000000000000000000000000000000000000000008152600401611c4490613a48565b60405180910390fd5b50505050565b60007f80ac58cd000000000000000000000000000000000000000000000000000000007bffffffffffffffffffffffffffffffffffffffffffffffffffffffff1916827bffffffffffffffffffffffffffffffffffffffffffffffffffffffff19161480611d1e57507f5b5e139f000000000000000000000000000000000000000000000000000000007bffffffffffffffffffffffffffffffffffffffffffffffffffffffff1916827bffffffffffffffffffffffffffffffffffffffffffffffffffffffff1916145b80611d2e5750611d2d82611f3c565b5b9050919050565b611d3f8383611fa6565b611d4c6000848484611da5565b611d8b576040517f08c379a0000000000000000000000000000000000000000000000000000000008152600401611d8290613a48565b60405180910390fd5b505050565b611d9b838383612180565b505050565b505050565b6000611dc68473ffffffffffffffffffffffffffffffffffffffff16612294565b15611f2f578373ffffffffffffffffffffffffffffffffffffffff1663150b7a02611def611359565b8786866040518563ffffffff1660e01b8152600401611e119493929190613abd565b602060405180830381600087803b158015611e2b57600080fd5b505af1925050508015611e5c57506040513d601f19601f82011682018060405250810190611e599190613b1e565b60015b611edf573d8060008114611e8c576040519150601f19603f3d011682016040523d82523d6000602084013e611e91565b606091505b50600081511415611ed7576040517f08c379a0000000000000000000000000000000000000000000000000000000008152600401611ece90613a48565b60405180910390fd5b805181602001fd5b63150b7a0260e01b7bffffffffffffffffffffffffffffffffffffffffffffffffffffffff1916817bffffffffffffffffffffffffffffffffffffffffffffffffffffffff191614915050611f34565b600190505b949350505050565b60007f01ffc9a7000000000000000000000000000000000000000000000000000000007bffffffffffffffffffffffffffffffffffffffffffffffffffffffff1916827bffffffffffffffffffffffffffffffffffffffffffffffffffffffff1916149050919050565b600073ffffffffffffffffffffffffffffffffffffffff168273ffffffffffffffffffffffffffffffffffffffff161415612016576040517f08c379a000000000000000000000000000000000000000000000000000000000815260040161200d90613b97565b60405180910390fd5b61201f816113db565b1561205f576040517f08c379a000000000000000000000000000000000000000000000000000000000815260040161205690613c03565b60405180910390fd5b61206b60008383611d90565b6001600360008473ffffffffffffffffffffffffffffffffffffffff1673ffffffffffffffffffffffffffffffffffffffff16815260200190815260200160002060008282546120bb919061311e565b92505081905550816002600083815260200190815260200160002060006101000a81548173ffffffffffffffffffffffffffffffffffffffff021916908373ffffffffffffffffffffffffffffffffffffffff160217905550808273ffffffffffffffffffffffffffffffffffffffff16600073ffffffffffffffffffffffffffffffffffffffff167fddf252ad1be2c89b69c2b068fc378daa952ba7f163c4a11628f55a4df523b3ef60405160405180910390a461217c60008383611da0565b5050565b61218b8383836122b7565b600073ffffffffffffffffffffffffffffffffffffffff168373ffffffffffffffffffffffffffffffffffffffff1614156121ce576121c9816122bc565b61220d565b8173ffffffffffffffffffffffffffffffffffffffff168373ffffffffffffffffffffffffffffffffffffffff161461220c5761220b8382612305565b5b5b600073ffffffffffffffffffffffffffffffffffffffff168273ffffffffffffffffffffffffffffffffffffffff1614156122505761224b81612472565b61228f565b8273ffffffffffffffffffffffffffffffffffffffff168273ffffffffffffffffffffffffffffffffffffffff161461228e5761228d8282612543565b5b5b505050565b6000808273ffffffffffffffffffffffffffffffffffffffff163b119050919050565b505050565b6008805490506009600083815260200190815260200160002081905550600881908060018154018082558091505060019003906000526020600020016000909190919091505550565b6000600161231284610e2e565b61231c919061374f565b9050600060076000848152602001908152602001600020549050818114612401576000600660008673ffffffffffffffffffffffffffffffffffffffff1673ffffffffffffffffffffffffffffffffffffffff168152602001908152602001600020600084815260200190815260200160002054905080600660008773ffffffffffffffffffffffffffffffffffffffff1673ffffffffffffffffffffffffffffffffffffffff168152602001908152602001600020600084815260200190815260200160002081905550816007600083815260200190815260200160002081905550505b6007600084815260200190815260200160002060009055600660008573ffffffffffffffffffffffffffffffffffffffff1673ffffffffffffffffffffffffffffffffffffffff16815260200190815260200160002060008381526020019081526020016000206000905550505050565b60006001600880549050612486919061374f565b90506000600960008481526020019081526020016000205490506000600883815481106124b6576124b561350a565b5b9060005260206000200154905080600883815481106124d8576124d761350a565b5b90600052602060002001819055508160096000838152602001908152602001600020819055506009600085815260200190815260200160002060009055600880548061252757612526613c23565b5b6001900381819060005260206000200160009055905550505050565b600061254e83610e2e565b905081600660008573ffffffffffffffffffffffffffffffffffffffff1673ffffffffffffffffffffffffffffffffffffffff168152602001908152602001600020600083815260200190815260200160002081905550806007600084815260200190815260200160002081905550505050565b8280546125ce90612dc0565b90600052602060002090601f0160209004810192826125f05760008555612637565b82601f1061260957805160ff1916838001178555612637565b82800160010185558215612637579182015b8281111561263657825182559160200191906001019061261b565b5b5090506126449190612648565b5090565b5b80821115612661576000816000905550600101612649565b5090565b6000604051905090565b600080fd5b600080fd5b600080fd5b600080fd5b6000601f19601f8301169050919050565b7f4e487b7100000000000000000000000000000000000000000000000000000000600052604160045260246000fd5b6126cc82612683565b810181811067ffffffffffffffff821117156126eb576126ea612694565b5b80604052505050565b60006126fe612665565b905061270a82826126c3565b919050565b600067ffffffffffffffff82111561272a57612729612694565b5b61273382612683565b9050602081019050919050565b82818337600083830152505050565b600061276261275d8461270f565b6126f4565b90508281526020810184848401111561277e5761277d61267e565b5b612789848285612740565b509392505050565b600082601f8301126127a6576127a5612679565b5b81356127b684826020860161274f565b91505092915050565b6000819050919050565b6127d2816127bf565b81146127dd57600080fd5b50565b6000813590506127ef816127c9565b92915050565b6000806040838503121561280c5761280b61266f565b5b600083013567ffffffffffffffff81111561282a57612829612674565b5b61283685828601612791565b9250506020612847858286016127e0565b9150509250929050565b60007fffffffff0000000000000000000000000000000000000000000000000000000082169050919050565b61288681612851565b811461289157600080fd5b50565b6000813590506128a38161287d565b92915050565b6000602082840312156128bf576128be61266f565b5b60006128cd84828501612894565b91505092915050565b60008115159050919050565b6128eb816128d6565b82525050565b600060208201905061290660008301846128e2565b92915050565b6000602082840312156129225761292161266f565b5b6000612930848285016127e0565b91505092915050565b600081519050919050565b600082825260208201905092915050565b60005b83811015612973578082015181840152602081019050612958565b83811115612982576000848401525b50505050565b600061299382612939565b61299d8185612944565b93506129ad818560208601612955565b6129b681612683565b840191505092915050565b600060208201905081810360008301526129db8184612988565b905092915050565b600073ffffffffffffffffffffffffffffffffffffffff82169050919050565b6000612a0e826129e3565b9050919050565b612a1e81612a03565b82525050565b6000602082019050612a396000830184612a15565b92915050565b612a4881612a03565b8114612a5357600080fd5b50565b600081359050612a6581612a3f565b92915050565b60008060408385031215612a8257612a8161266f565b5b6000612a9085828601612a56565b9250506020612aa1858286016127e0565b9150509250929050565b612ab4816127bf565b82525050565b6000602082019050612acf6000830184612aab565b92915050565b600080600060608486031215612aee57612aed61266f565b5b6000612afc86828701612a56565b9350506020612b0d86828701612a56565b9250506040612b1e868287016127e0565b9150509250925092565b600060208284031215612b3e57612b3d61266f565b5b6000612b4c84828501612a56565b91505092915050565b612b5e816128d6565b8114612b6957600080fd5b50565b600081359050612b7b81612b55565b92915050565b60008060408385031215612b9857612b9761266f565b5b6000612ba685828601612a56565b9250506020612bb785828601612b6c565b9150509250929050565b600067ffffffffffffffff821115612bdc57612bdb612694565b5b612be582612683565b9050602081019050919050565b6000612c05612c0084612bc1565b6126f4565b905082815260208101848484011115612c2157612c2061267e565b5b612c2c848285612740565b509392505050565b600082601f830112612c4957612c48612679565b5b8135612c59848260208601612bf2565b91505092915050565b60008060008060808587031215612c7c57612c7b61266f565b5b6000612c8a87828801612a56565b9450506020612c9b87828801612a56565b9350506040612cac878288016127e0565b925050606085013567ffffffffffffffff811115612ccd57612ccc612674565b5b612cd987828801612c34565b91505092959194509250565b60008060408385031215612cfc57612cfb61266f565b5b6000612d0a85828601612a56565b9250506020612d1b85828601612a56565b9150509250929050565b7f4f776e61626c653a2063616c6c6572206973206e6f7420746865206f776e6572600082015250565b6000612d5b602083612944565b9150612d6682612d25565b602082019050919050565b60006020820190508181036000830152612d8a81612d4e565b9050919050565b7f4e487b7100000000000000000000000000000000000000000000000000000000600052602260045260246000fd5b60006002820490506001821680612dd857607f821691505b60208210811415612dec57612deb612d91565b5b50919050565b7f4552433732313a20617070726f76656420717565727920666f72206e6f6e657860008201527f697374656e7420746f6b656e0000000000000000000000000000000000000000602082015250565b6000612e4e602c83612944565b9150612e5982612df2565b604082019050919050565b60006020820190508181036000830152612e7d81612e41565b9050919050565b7f4552433732313a20617070726f76616c20746f2063757272656e74206f776e6560008201527f7200000000000000000000000000000000000000000000000000000000000000602082015250565b6000612ee0602183612944565b9150612eeb82612e84565b604082019050919050565b60006020820190508181036000830152612f0f81612ed3565b9050919050565b7f4552433732313a20617070726f76652063616c6c6572206973206e6f74206f7760008201527f6e6572206e6f7220617070726f76656420666f7220616c6c0000000000000000602082015250565b6000612f72603883612944565b9150612f7d82612f16565b604082019050919050565b60006020820190508181036000830152612fa181612f65565b9050919050565b7f546f6b656e20436f6c6c656374696f6e3a20736f6c64206f7574000000000000600082015250565b6000612fde601a83612944565b9150612fe982612fa8565b602082019050919050565b6000602082019050818103600083015261300d81612fd1565b9050919050565b7f546f6b656e20436f6c6c656374696f6e3a20696e73756666696369656e74206660008201527f756e647300000000000000000000000000000000000000000000000000000000602082015250565b6000613070602483612944565b915061307b82613014565b604082019050919050565b6000602082019050818103600083015261309f81613063565b9050919050565b7f4e487b7100000000000000000000000000000000000000000000000000000000600052601160045260246000fd5b60006130e0826127bf565b91507fffffffffffffffffffffffffffffffffffffffffffffffffffffffffffffffff821415613113576131126130a6565b5b600182019050919050565b6000613129826127bf565b9150613134836127bf565b9250827fffffffffffffffffffffffffffffffffffffffffffffffffffffffffffffffff03821115613169576131686130a6565b5b828201905092915050565b600081905092915050565b60008190508160005260206000209050919050565b600081546131a181612dc0565b6131ab8186613174565b945060018216600081146131c657600181146131d75761320a565b60ff1983168652818601935061320a565b6131e08561317f565b60005b83811015613202578154818901526001820191506020810190506131e3565b838801955050505b50505092915050565b7f2f00000000000000000000000000000000000000000000000000000000000000600082015250565b6000613249600183613174565b915061325482613213565b600182019050919050565b600061326a82612939565b6132748185613174565b9350613284818560208601612955565b80840191505092915050565b7f2e6a736f6e000000000000000000000000000000000000000000000000000000600082015250565b60006132c6600583613174565b91506132d182613290565b600582019050919050565b60006132e88285613194565b91506132f38261323c565b91506132ff828461325f565b915061330a826132b9565b91508190509392505050565b600060608201905061332b6000830186612aab565b818103602083015261333d8185612988565b905061334c6040830184612aab565b949350505050565b7f4552433732313a207472616e736665722063616c6c6572206973206e6f74206f60008201527f776e6572206e6f7220617070726f766564000000000000000000000000000000602082015250565b60006133b0603183612944565b91506133bb82613354565b604082019050919050565b600060208201905081810360008301526133df816133a3565b9050919050565b7f455243373231456e756d657261626c653a206f776e657220696e646578206f7560008201527f74206f6620626f756e6473000000000000000000000000000000000000000000602082015250565b6000613442602b83612944565b915061344d826133e6565b604082019050919050565b6000602082019050818103600083015261347181613435565b9050919050565b7f455243373231456e756d657261626c653a20676c6f62616c20696e646578206f60008201527f7574206f6620626f756e64730000000000000000000000000000000000000000602082015250565b60006134d4602c83612944565b91506134df82613478565b604082019050919050565b60006020820190508181036000830152613503816134c7565b9050919050565b7f4e487b7100000000000000000000000000000000000000000000000000000000600052603260045260246000fd5b7f4552433732313a206f776e657220717565727920666f72206e6f6e657869737460008201527f656e7420746f6b656e0000000000000000000000000000000000000000000000602082015250565b6000613595602983612944565b91506135a082613539565b604082019050919050565b600060208201905081810360008301526135c481613588565b9050919050565b7f4552433732313a2062616c616e636520717565727920666f7220746865207a6560008201527f726f206164647265737300000000000000000000000000000000000000000000602082015250565b6000613627602a83612944565b9150613632826135cb565b604082019050919050565b600060208201905081810360008301526136568161361a565b9050919050565b7f4f776e61626c653a206e6577206f776e657220697320746865207a65726f206160008201527f6464726573730000000000000000000000000000000000000000000000000000602082015250565b60006136b9602683612944565b91506136c48261365d565b604082019050919050565b600060208201905081810360008301526136e8816136ac565b9050919050565b7f4e487b7100000000000000000000000000000000000000000000000000000000600052601260045260246000fd5b6000613729826127bf565b9150613734836127bf565b925082613744576137436136ef565b5b828204905092915050565b600061375a826127bf565b9150613765836127bf565b925082821015613778576137776130a6565b5b828203905092915050565b600061378e826127bf565b9150613799836127bf565b9250826137a9576137a86136ef565b5b828206905092915050565b7f4552433732313a206f70657261746f7220717565727920666f72206e6f6e657860008201527f697374656e7420746f6b656e0000000000000000000000000000000000000000602082015250565b6000613810602c83612944565b915061381b826137b4565b604082019050919050565b6000602082019050818103600083015261383f81613803565b9050919050565b7f4552433732313a207472616e736665722066726f6d20696e636f72726563742060008201527f6f776e6572000000000000000000000000000000000000000000000000000000602082015250565b60006138a2602583612944565b91506138ad82613846565b604082019050919050565b600060208201905081810360008301526138d181613895565b9050919050565b7f4552433732313a207472616e7366657220746f20746865207a65726f2061646460008201527f7265737300000000000000000000000000000000000000000000000000000000602082015250565b6000613934602483612944565b915061393f826138d8565b604082019050919050565b6000602082019050818103600083015261396381613927565b9050919050565b7f4552433732313a20617070726f766520746f2063616c6c657200000000000000600082015250565b60006139a0601983612944565b91506139ab8261396a565b602082019050919050565b600060208201905081810360008301526139cf81613993565b9050919050565b7f4552433732313a207472616e7366657220746f206e6f6e20455243373231526560008201527f63656976657220696d706c656d656e7465720000000000000000000000000000602082015250565b6000613a32603283612944565b9150613a3d826139d6565b604082019050919050565b60006020820190508181036000830152613a6181613a25565b9050919050565b600081519050919050565b600082825260208201905092915050565b6000613a8f82613a68565b613a998185613a73565b9350613aa9818560208601612955565b613ab281612683565b840191505092915050565b6000608082019050613ad26000830187612a15565b613adf6020830186612a15565b613aec6040830185612aab565b8181036060830152613afe8184613a84565b905095945050505050565b600081519050613b188161287d565b92915050565b600060208284031215613b3457613b3361266f565b5b6000613b4284828501613b09565b91505092915050565b7f4552433732313a206d696e7420746f20746865207a65726f2061646472657373600082015250565b6000613b81602083612944565b9150613b8c82613b4b565b602082019050919050565b60006020820190508181036000830152613bb081613b74565b9050919050565b7f4552433732313a20746f6b656e20616c7265616479206d696e74656400000000600082015250565b6000613bed601c83612944565b9150613bf882613bb7565b602082019050919050565b60006020820190508181036000830152613c1c81613be0565b9050919050565b7f4e487b7100000000000000000000000000000000000000000000000000000000600052603160045260246000fdfea2646970667358221220225bf7fe109353779b8b54e2524f20bdcedabdbb86e1ce00f8ffa1f6958b136f64736f6c63430008090033",
  "linkReferences": {},
  "deployedLinkReferences": {}
}