{
  "_format": "hh-sol-artifact-1",
  "contractName": "RedEnvelope",
  "sourceName": "contracts/RedEnvelope.sol",
  "abi": [
    {
      "inputs": [],
      "stateMutability": "nonpayable",
      "type": "constructor"
    },
    {
      "inputs": [
        {
          "internalType": "address",
          "name": "_claimer",
          "type": "address"
        },
        {
          "internalType": "uint256",
          "name": "_envelopeId",
          "type": "uint256"
        }
      ],
      "name": "claim",
      "outputs": [],
      "stateMutability": "nonpayable",
      "type": "function"
    },
    {
      "inputs": [
        {
          "internalType": "uint256",
          "name": "_tokenAmount",
          "type": "uint256"
        },
        {
          "internalType": "uint256",
          "name": "_participantsLimit",
          "type": "uint256"
        }
      ],
      "name": "createEnvelope",
      "outputs": [],
      "stateMutability": "payable",
      "type": "function"
    }
  ],
  "bytecode": "0x608060405234801561001057600080fd5b506106f0806100206000396000f3fe6080604052600436106100295760003560e01c8063aad3ec961461002e578063b6a74bfb14610057575b600080fd5b34801561003a57600080fd5b5061005560048036038101906100509190610336565b610073565b005b610071600480360381019061006c9190610376565b610208565b005b600060016000838152602001908152602001600020905080600201548160010154116100d4576040517f08c379a00000000000000000000000000000000000000000000000000000000081526004016100cb90610413565b60405180910390fd5b600081600001541161011b576040517f08c379a00000000000000000000000000000000000000000000000000000000081526004016101129061047f565b60405180910390fd5b806002016000815480929190610130906104ce565b9190505550600081600201548260010154146101985760018260000154836002015442604051602001610164929190610538565b6040516020818303038152906040528051906020012060001c6101879190610593565b61019191906105c4565b90506101a0565b816000015490505b808260000160008282546101b4919061061a565b925050819055508373ffffffffffffffffffffffffffffffffffffffff166108fc829081150290604051600060405180830381858888f19350505050158015610201573d6000803e3d6000fd5b5050505050565b60008081548092919061021a906104ce565b9190505550813414610261576040517f08c379a00000000000000000000000000000000000000000000000000000000081526004016102589061069a565b60405180910390fd5b81600160008054815260200190815260200160002060000181905550806001600080548152602001908152602001600020600101819055505050565b600080fd5b600073ffffffffffffffffffffffffffffffffffffffff82169050919050565b60006102cd826102a2565b9050919050565b6102dd816102c2565b81146102e857600080fd5b50565b6000813590506102fa816102d4565b92915050565b6000819050919050565b61031381610300565b811461031e57600080fd5b50565b6000813590506103308161030a565b92915050565b6000806040838503121561034d5761034c61029d565b5b600061035b858286016102eb565b925050602061036c85828601610321565b9150509250929050565b6000806040838503121561038d5761038c61029d565b5b600061039b85828601610321565b92505060206103ac85828601610321565b9150509250929050565b600082825260208201905092915050565b7f6d6178207061727469636970616e747320657863656564656400000000000000600082015250565b60006103fd6019836103b6565b9150610408826103c7565b602082019050919050565b6000602082019050818103600083015261042c816103f0565b9050919050565b7f746f6b656e7320616c7265616479206469737472696275746564000000000000600082015250565b6000610469601a836103b6565b915061047482610433565b602082019050919050565b600060208201905081810360008301526104988161045c565b9050919050565b7f4e487b7100000000000000000000000000000000000000000000000000000000600052601160045260246000fd5b60006104d982610300565b91507fffffffffffffffffffffffffffffffffffffffffffffffffffffffffffffffff82141561050c5761050b61049f565b5b600182019050919050565b6000819050919050565b61053261052d82610300565b610517565b82525050565b60006105448285610521565b6020820191506105548284610521565b6020820191508190509392505050565b7f4e487b7100000000000000000000000000000000000000000000000000000000600052601260045260246000fd5b600061059e82610300565b91506105a983610300565b9250826105b9576105b8610564565b5b828206905092915050565b60006105cf82610300565b91506105da83610300565b9250827fffffffffffffffffffffffffffffffffffffffffffffffffffffffffffffffff0382111561060f5761060e61049f565b5b828201905092915050565b600061062582610300565b915061063083610300565b9250828210156106435761064261049f565b5b828203905092915050565b7f496e73756666696369656e742066756e64730000000000000000000000000000600082015250565b60006106846012836103b6565b915061068f8261064e565b602082019050919050565b600060208201905081810360008301526106b381610677565b905091905056fea2646970667358221220700ef87a58368c3cc59b4530832088e59f7ef6042bedc19c549dd90981c3fafd64736f6c63430008090033",
  "linkReferences": {},
  "deployedLinkReferences": {}
}