{
  "_format": "hh-sol-artifact-1",
  "contractName": "StorageAlert",
  "sourceName": "contracts/StorageAlert.sol",
  "abi": [
    {
      "inputs": [],
      "stateMutability": "nonpayable",
      "type": "constructor"
    },
    {
      "anonymous": false,
      "inputs": [
        {
          "indexed": false,
          "internalType": "address",
          "name": "reporter",
          "type": "address"
        },
        {
          "indexed": false,
          "internalType": "string",
          "name": "name",
          "type": "string"
        },
        {
          "indexed": false,
          "internalType": "string",
          "name": "composition",
          "type": "string"
        },
        {
          "indexed": false,
          "internalType": "string",
          "name": "location",
          "type": "string"
        },
        {
          "indexed": false,
          "internalType": "uint256",
          "name": "timeStamp",
          "type": "uint256"
        },
        {
          "indexed": false,
          "internalType": "string",
          "name": "comment",
          "type": "string"
        }
      ],
      "name": "AlertCreated",
      "type": "event"
    },
    {
      "anonymous": false,
      "inputs": [
        {
          "indexed": true,
          "internalType": "bytes32",
          "name": "role",
          "type": "bytes32"
        },
        {
          "indexed": true,
          "internalType": "bytes32",
          "name": "previousAdminRole",
          "type": "bytes32"
        },
        {
          "indexed": true,
          "internalType": "bytes32",
          "name": "newAdminRole",
          "type": "bytes32"
        }
      ],
      "name": "RoleAdminChanged",
      "type": "event"
    },
    {
      "anonymous": false,
      "inputs": [
        {
          "indexed": true,
          "internalType": "bytes32",
          "name": "role",
          "type": "bytes32"
        },
        {
          "indexed": true,
          "internalType": "address",
          "name": "account",
          "type": "address"
        },
        {
          "indexed": true,
          "internalType": "address",
          "name": "sender",
          "type": "address"
        }
      ],
      "name": "RoleGranted",
      "type": "event"
    },
    {
      "anonymous": false,
      "inputs": [
        {
          "indexed": true,
          "internalType": "bytes32",
          "name": "role",
          "type": "bytes32"
        },
        {
          "indexed": true,
          "internalType": "address",
          "name": "account",
          "type": "address"
        },
        {
          "indexed": true,
          "internalType": "address",
          "name": "sender",
          "type": "address"
        }
      ],
      "name": "RoleRevoked",
      "type": "event"
    },
    {
      "inputs": [],
      "name": "ADMIN",
      "outputs": [
        {
          "internalType": "bytes32",
          "name": "",
          "type": "bytes32"
        }
      ],
      "stateMutability": "view",
      "type": "function"
    },
    {
      "inputs": [],
      "name": "DEFAULT_ADMIN_ROLE",
      "outputs": [
        {
          "internalType": "bytes32",
          "name": "",
          "type": "bytes32"
        }
      ],
      "stateMutability": "view",
      "type": "function"
    },
    {
      "inputs": [],
      "name": "WRITER_ROLE",
      "outputs": [
        {
          "internalType": "bytes32",
          "name": "",
          "type": "bytes32"
        }
      ],
      "stateMutability": "view",
      "type": "function"
    },
    {
      "inputs": [],
      "name": "alertCounter",
      "outputs": [
        {
          "internalType": "uint256",
          "name": "",
          "type": "uint256"
        }
      ],
      "stateMutability": "view",
      "type": "function"
    },
    {
      "inputs": [
        {
          "internalType": "string",
          "name": "_name",
          "type": "string"
        },
        {
          "internalType": "string",
          "name": "_composition",
          "type": "string"
        },
        {
          "internalType": "string",
          "name": "_location",
          "type": "string"
        },
        {
          "internalType": "string",
          "name": "_comment",
          "type": "string"
        },
        {
          "internalType": "uint256",
          "name": "_timeStamp",
          "type": "uint256"
        }
      ],
      "name": "createAlert",
      "outputs": [],
      "stateMutability": "nonpayable",
      "type": "function"
    },
    {
      "inputs": [
        {
          "internalType": "uint256",
          "name": "_alertId",
          "type": "uint256"
        }
      ],
      "name": "getAlert",
      "outputs": [
        {
          "components": [
            {
              "internalType": "address",
              "name": "reporter",
              "type": "address"
            },
            {
              "internalType": "string",
              "name": "name",
              "type": "string"
            },
            {
              "internalType": "string",
              "name": "composition",
              "type": "string"
            },
            {
              "internalType": "string",
              "name": "location",
              "type": "string"
            },
            {
              "internalType": "uint256",
              "name": "timeStamp",
              "type": "uint256"
            },
            {
              "internalType": "string",
              "name": "comment",
              "type": "string"
            }
          ],
          "internalType": "struct StorageAlert.Alerts",
          "name": "",
          "type": "tuple"
        }
      ],
      "stateMutability": "view",
      "type": "function"
    },
    {
      "inputs": [
        {
          "internalType": "bytes32",
          "name": "role",
          "type": "bytes32"
        }
      ],
      "name": "getRoleAdmin",
      "outputs": [
        {
          "internalType": "bytes32",
          "name": "",
          "type": "bytes32"
        }
      ],
      "stateMutability": "view",
      "type": "function"
    },
    {
      "inputs": [
        {
          "internalType": "bytes32",
          "name": "role",
          "type": "bytes32"
        },
        {
          "internalType": "address",
          "name": "account",
          "type": "address"
        }
      ],
      "name": "grantRole",
      "outputs": [],
      "stateMutability": "nonpayable",
      "type": "function"
    },
    {
      "inputs": [
        {
          "internalType": "address",
          "name": "_newWriterAddress",
          "type": "address"
        }
      ],
      "name": "grantWritingControl",
      "outputs": [],
      "stateMutability": "nonpayable",
      "type": "function"
    },
    {
      "inputs": [
        {
          "internalType": "bytes32",
          "name": "role",
          "type": "bytes32"
        },
        {
          "internalType": "address",
          "name": "account",
          "type": "address"
        }
      ],
      "name": "hasRole",
      "outputs": [
        {
          "internalType": "bool",
          "name": "",
          "type": "bool"
        }
      ],
      "stateMutability": "view",
      "type": "function"
    },
    {
      "inputs": [
        {
          "internalType": "address",
          "name": "_isCheckerAddress",
          "type": "address"
        }
      ],
      "name": "isChecker",
      "outputs": [
        {
          "internalType": "bool",
          "name": "",
          "type": "bool"
        }
      ],
      "stateMutability": "view",
      "type": "function"
    },
    {
      "inputs": [
        {
          "internalType": "bytes32",
          "name": "role",
          "type": "bytes32"
        },
        {
          "internalType": "address",
          "name": "account",
          "type": "address"
        }
      ],
      "name": "renounceRole",
      "outputs": [],
      "stateMutability": "nonpayable",
      "type": "function"
    },
    {
      "inputs": [
        {
          "internalType": "bytes32",
          "name": "role",
          "type": "bytes32"
        },
        {
          "internalType": "address",
          "name": "account",
          "type": "address"
        }
      ],
      "name": "revokeRole",
      "outputs": [],
      "stateMutability": "nonpayable",
      "type": "function"
    },
    {
      "inputs": [
        {
          "internalType": "bytes4",
          "name": "interfaceId",
          "type": "bytes4"
        }
      ],
      "name": "supportsInterface",
      "outputs": [
        {
          "internalType": "bool",
          "name": "",
          "type": "bool"
        }
      ],
      "stateMutability": "view",
      "type": "function"
    }
  ],
  "bytecode": "0x60806040523480156200001157600080fd5b50620000447f2b8f168f361ac1393a163ed4adfa899a87be7b7c71645167bdaddd822ae453c8336200007c60201b60201c565b620000767fdf8b4c520ffe197c5343c6f5aec59570151ef9a492f2c624fd45ddde6135ec42336200007c60201b60201c565b620001f5565b6200008e82826200009260201b60201c565b5050565b620000a482826200018360201b60201c565b6200017f57600160008084815260200190815260200160002060000160008373ffffffffffffffffffffffffffffffffffffffff1673ffffffffffffffffffffffffffffffffffffffff16815260200190815260200160002060006101000a81548160ff02191690831515021790555062000124620001ed60201b60201c565b73ffffffffffffffffffffffffffffffffffffffff168173ffffffffffffffffffffffffffffffffffffffff16837f2f8788117e7eff1d82e926ec794901d17c78024a50270940304540a733656f0d60405160405180910390a45b5050565b600080600084815260200190815260200160002060000160008373ffffffffffffffffffffffffffffffffffffffff1673ffffffffffffffffffffffffffffffffffffffff16815260200190815260200160002060009054906101000a900460ff16905092915050565b600033905090565b611cdf80620002056000396000f3fe608060405234801561001057600080fd5b50600436106100ea5760003560e01c8063850818861161008c578063a217fddf11610066578063a217fddf1461025b578063b0e37f7914610279578063c7690ec6146102a9578063d547741f146102c7576100ea565b806385081886146101dd57806391d148541461020d5780639beaab7b1461023d576100ea565b80632a0acc6a116100c85780632a0acc6a1461016b5780632f2ff15d14610189578063300ce98e146101a557806336568abe146101c1576100ea565b806301ffc9a7146100ef5780630a3e5a161461011f578063248a9ca31461013b575b600080fd5b6101096004803603810190610104919061110c565b6102e3565b6040516101169190611154565b60405180910390f35b610139600480360381019061013491906111cd565b61035d565b005b61015560048036038101906101509190611230565b6103f3565b604051610162919061126c565b60405180910390f35b610173610412565b604051610180919061126c565b60405180910390f35b6101a3600480360381019061019e9190611287565b610436565b005b6101bf60048036038101906101ba9190611443565b61045f565b005b6101db60048036038101906101d69190611287565b610648565b005b6101f760048036038101906101f2919061152e565b6106cb565b604051610204919061169f565b60405180910390f35b61022760048036038101906102229190611287565b6109a0565b6040516102349190611154565b60405180910390f35b610245610a0a565b604051610252919061126c565b60405180910390f35b610263610a2e565b604051610270919061126c565b60405180910390f35b610293600480360381019061028e91906111cd565b610a35565b6040516102a09190611154565b60405180910390f35b6102b1610a68565b6040516102be91906116d0565b60405180910390f35b6102e160048036038101906102dc9190611287565b610a6e565b005b60007f7965db0b000000000000000000000000000000000000000000000000000000007bffffffffffffffffffffffffffffffffffffffffffffffffffffffff1916827bffffffffffffffffffffffffffffffffffffffffffffffffffffffff19161480610356575061035582610a97565b5b9050919050565b6103877fdf8b4c520ffe197c5343c6f5aec59570151ef9a492f2c624fd45ddde6135ec42336109a0565b6103c6576040517f08c379a00000000000000000000000000000000000000000000000000000000081526004016103bd90611748565b60405180910390fd5b6103f07f2b8f168f361ac1393a163ed4adfa899a87be7b7c71645167bdaddd822ae453c882610b01565b50565b6000806000838152602001908152602001600020600101549050919050565b7fdf8b4c520ffe197c5343c6f5aec59570151ef9a492f2c624fd45ddde6135ec4281565b61043f826103f3565b6104508161044b610b0f565b610b17565b61045a8383610bb4565b505050565b6104897f2b8f168f361ac1393a163ed4adfa899a87be7b7c71645167bdaddd822ae453c8336109a0565b6104c8576040517f08c379a00000000000000000000000000000000000000000000000000000000081526004016104bf906117b4565b60405180910390fd5b600260008154809291906104db90611803565b91905055506040518060c001604052803373ffffffffffffffffffffffffffffffffffffffff1681526020018681526020018581526020018481526020018281526020018381525060016000600254815260200190815260200160002060008201518160000160006101000a81548173ffffffffffffffffffffffffffffffffffffffff021916908373ffffffffffffffffffffffffffffffffffffffff160217905550602082015181600101908051906020019061059b929190610fb1565b5060408201518160020190805190602001906105b8929190610fb1565b5060608201518160030190805190602001906105d5929190610fb1565b506080820151816004015560a08201518160050190805190602001906105fc929190610fb1565b509050507f7c52e5420de80328bd3ac2284c4e680e9732eaa639e6b42784f56b62c4f8f59333868686858760405161063996959493929190611894565b60405180910390a15050505050565b610650610b0f565b73ffffffffffffffffffffffffffffffffffffffff168173ffffffffffffffffffffffffffffffffffffffff16146106bd576040517f08c379a00000000000000000000000000000000000000000000000000000000081526004016106b490611983565b60405180910390fd5b6106c78282610c94565b5050565b6106d3611037565b600160008381526020019081526020016000206040518060c00160405290816000820160009054906101000a900473ffffffffffffffffffffffffffffffffffffffff1673ffffffffffffffffffffffffffffffffffffffff1673ffffffffffffffffffffffffffffffffffffffff168152602001600182018054610757906119d2565b80601f0160208091040260200160405190810160405280929190818152602001828054610783906119d2565b80156107d05780601f106107a5576101008083540402835291602001916107d0565b820191906000526020600020905b8154815290600101906020018083116107b357829003601f168201915b505050505081526020016002820180546107e9906119d2565b80601f0160208091040260200160405190810160405280929190818152602001828054610815906119d2565b80156108625780601f1061083757610100808354040283529160200191610862565b820191906000526020600020905b81548152906001019060200180831161084557829003601f168201915b5050505050815260200160038201805461087b906119d2565b80601f01602080910402602001604051908101604052809291908181526020018280546108a7906119d2565b80156108f45780601f106108c9576101008083540402835291602001916108f4565b820191906000526020600020905b8154815290600101906020018083116108d757829003601f168201915b5050505050815260200160048201548152602001600582018054610917906119d2565b80601f0160208091040260200160405190810160405280929190818152602001828054610943906119d2565b80156109905780601f1061096557610100808354040283529160200191610990565b820191906000526020600020905b81548152906001019060200180831161097357829003601f168201915b5050505050815250509050919050565b600080600084815260200190815260200160002060000160008373ffffffffffffffffffffffffffffffffffffffff1673ffffffffffffffffffffffffffffffffffffffff16815260200190815260200160002060009054906101000a900460ff16905092915050565b7f2b8f168f361ac1393a163ed4adfa899a87be7b7c71645167bdaddd822ae453c881565b6000801b81565b6000610a617f2b8f168f361ac1393a163ed4adfa899a87be7b7c71645167bdaddd822ae453c8836109a0565b9050919050565b60025481565b610a77826103f3565b610a8881610a83610b0f565b610b17565b610a928383610c94565b505050565b60007f01ffc9a7000000000000000000000000000000000000000000000000000000007bffffffffffffffffffffffffffffffffffffffffffffffffffffffff1916827bffffffffffffffffffffffffffffffffffffffffffffffffffffffff1916149050919050565b610b0b8282610bb4565b5050565b600033905090565b610b2182826109a0565b610bb057610b468173ffffffffffffffffffffffffffffffffffffffff166014610d75565b610b548360001c6020610d75565b604051602001610b65929190611ad8565b6040516020818303038152906040526040517f08c379a0000000000000000000000000000000000000000000000000000000008152600401610ba79190611b12565b60405180910390fd5b5050565b610bbe82826109a0565b610c9057600160008084815260200190815260200160002060000160008373ffffffffffffffffffffffffffffffffffffffff1673ffffffffffffffffffffffffffffffffffffffff16815260200190815260200160002060006101000a81548160ff021916908315150217905550610c35610b0f565b73ffffffffffffffffffffffffffffffffffffffff168173ffffffffffffffffffffffffffffffffffffffff16837f2f8788117e7eff1d82e926ec794901d17c78024a50270940304540a733656f0d60405160405180910390a45b5050565b610c9e82826109a0565b15610d7157600080600084815260200190815260200160002060000160008373ffffffffffffffffffffffffffffffffffffffff1673ffffffffffffffffffffffffffffffffffffffff16815260200190815260200160002060006101000a81548160ff021916908315150217905550610d16610b0f565b73ffffffffffffffffffffffffffffffffffffffff168173ffffffffffffffffffffffffffffffffffffffff16837ff6391f5c32d9c69d2a47ea670b442974b53935d1edc7fd64eb21e047a839171b60405160405180910390a45b5050565b606060006002836002610d889190611b34565b610d929190611b8e565b67ffffffffffffffff811115610dab57610daa6112e2565b5b6040519080825280601f01601f191660200182016040528015610ddd5781602001600182028036833780820191505090505b5090507f300000000000000000000000000000000000000000000000000000000000000081600081518110610e1557610e14611be4565b5b60200101907effffffffffffffffffffffffffffffffffffffffffffffffffffffffffffff1916908160001a9053507f780000000000000000000000000000000000000000000000000000000000000081600181518110610e7957610e78611be4565b5b60200101907effffffffffffffffffffffffffffffffffffffffffffffffffffffffffffff1916908160001a90535060006001846002610eb99190611b34565b610ec39190611b8e565b90505b6001811115610f63577f3031323334353637383961626364656600000000000000000000000000000000600f861660108110610f0557610f04611be4565b5b1a60f81b828281518110610f1c57610f1b611be4565b5b60200101907effffffffffffffffffffffffffffffffffffffffffffffffffffffffffffff1916908160001a905350600485901c945080610f5c90611c13565b9050610ec6565b5060008414610fa7576040517f08c379a0000000000000000000000000000000000000000000000000000000008152600401610f9e90611c89565b60405180910390fd5b8091505092915050565b828054610fbd906119d2565b90600052602060002090601f016020900481019282610fdf5760008555611026565b82601f10610ff857805160ff1916838001178555611026565b82800160010185558215611026579182015b8281111561102557825182559160200191906001019061100a565b5b5090506110339190611083565b5090565b6040518060c00160405280600073ffffffffffffffffffffffffffffffffffffffff16815260200160608152602001606081526020016060815260200160008152602001606081525090565b5b8082111561109c576000816000905550600101611084565b5090565b6000604051905090565b600080fd5b600080fd5b60007fffffffff0000000000000000000000000000000000000000000000000000000082169050919050565b6110e9816110b4565b81146110f457600080fd5b50565b600081359050611106816110e0565b92915050565b600060208284031215611122576111216110aa565b5b6000611130848285016110f7565b91505092915050565b60008115159050919050565b61114e81611139565b82525050565b60006020820190506111696000830184611145565b92915050565b600073ffffffffffffffffffffffffffffffffffffffff82169050919050565b600061119a8261116f565b9050919050565b6111aa8161118f565b81146111b557600080fd5b50565b6000813590506111c7816111a1565b92915050565b6000602082840312156111e3576111e26110aa565b5b60006111f1848285016111b8565b91505092915050565b6000819050919050565b61120d816111fa565b811461121857600080fd5b50565b60008135905061122a81611204565b92915050565b600060208284031215611246576112456110aa565b5b60006112548482850161121b565b91505092915050565b611266816111fa565b82525050565b6000602082019050611281600083018461125d565b92915050565b6000806040838503121561129e5761129d6110aa565b5b60006112ac8582860161121b565b92505060206112bd858286016111b8565b9150509250929050565b600080fd5b600080fd5b6000601f19601f8301169050919050565b7f4e487b7100000000000000000000000000000000000000000000000000000000600052604160045260246000fd5b61131a826112d1565b810181811067ffffffffffffffff82111715611339576113386112e2565b5b80604052505050565b600061134c6110a0565b90506113588282611311565b919050565b600067ffffffffffffffff821115611378576113776112e2565b5b611381826112d1565b9050602081019050919050565b82818337600083830152505050565b60006113b06113ab8461135d565b611342565b9050828152602081018484840111156113cc576113cb6112cc565b5b6113d784828561138e565b509392505050565b600082601f8301126113f4576113f36112c7565b5b813561140484826020860161139d565b91505092915050565b6000819050919050565b6114208161140d565b811461142b57600080fd5b50565b60008135905061143d81611417565b92915050565b600080600080600060a0868803121561145f5761145e6110aa565b5b600086013567ffffffffffffffff81111561147d5761147c6110af565b5b611489888289016113df565b955050602086013567ffffffffffffffff8111156114aa576114a96110af565b5b6114b6888289016113df565b945050604086013567ffffffffffffffff8111156114d7576114d66110af565b5b6114e3888289016113df565b935050606086013567ffffffffffffffff811115611504576115036110af565b5b611510888289016113df565b92505060806115218882890161142e565b9150509295509295909350565b600060208284031215611544576115436110aa565b5b60006115528482850161142e565b91505092915050565b6115648161118f565b82525050565b600081519050919050565b600082825260208201905092915050565b60005b838110156115a4578082015181840152602081019050611589565b838111156115b3576000848401525b50505050565b60006115c48261156a565b6115ce8185611575565b93506115de818560208601611586565b6115e7816112d1565b840191505092915050565b6115fb8161140d565b82525050565b600060c083016000830151611619600086018261155b565b506020830151848203602086015261163182826115b9565b9150506040830151848203604086015261164b82826115b9565b9150506060830151848203606086015261166582826115b9565b915050608083015161167a60808601826115f2565b5060a083015184820360a086015261169282826115b9565b9150508091505092915050565b600060208201905081810360008301526116b98184611601565b905092915050565b6116ca8161140d565b82525050565b60006020820190506116e560008301846116c1565b92915050565b600082825260208201905092915050565b7f4e6f742061646d696e0000000000000000000000000000000000000000000000600082015250565b60006117326009836116eb565b915061173d826116fc565b602082019050919050565b6000602082019050818103600083015261176181611725565b9050919050565b7f4e6f742077726974657200000000000000000000000000000000000000000000600082015250565b600061179e600a836116eb565b91506117a982611768565b602082019050919050565b600060208201905081810360008301526117cd81611791565b9050919050565b7f4e487b7100000000000000000000000000000000000000000000000000000000600052601160045260246000fd5b600061180e8261140d565b91507fffffffffffffffffffffffffffffffffffffffffffffffffffffffffffffffff821415611841576118406117d4565b5b600182019050919050565b6118558161118f565b82525050565b60006118668261156a565b61187081856116eb565b9350611880818560208601611586565b611889816112d1565b840191505092915050565b600060c0820190506118a9600083018961184c565b81810360208301526118bb818861185b565b905081810360408301526118cf818761185b565b905081810360608301526118e3818661185b565b90506118f260808301856116c1565b81810360a0830152611904818461185b565b9050979650505050505050565b7f416363657373436f6e74726f6c3a2063616e206f6e6c792072656e6f756e636560008201527f20726f6c657320666f722073656c660000000000000000000000000000000000602082015250565b600061196d602f836116eb565b915061197882611911565b604082019050919050565b6000602082019050818103600083015261199c81611960565b9050919050565b7f4e487b7100000000000000000000000000000000000000000000000000000000600052602260045260246000fd5b600060028204905060018216806119ea57607f821691505b602082108114156119fe576119fd6119a3565b5b50919050565b600081905092915050565b7f416363657373436f6e74726f6c3a206163636f756e7420000000000000000000600082015250565b6000611a45601783611a04565b9150611a5082611a0f565b601782019050919050565b6000611a668261156a565b611a708185611a04565b9350611a80818560208601611586565b80840191505092915050565b7f206973206d697373696e6720726f6c6520000000000000000000000000000000600082015250565b6000611ac2601183611a04565b9150611acd82611a8c565b601182019050919050565b6000611ae382611a38565b9150611aef8285611a5b565b9150611afa82611ab5565b9150611b068284611a5b565b91508190509392505050565b60006020820190508181036000830152611b2c818461185b565b905092915050565b6000611b3f8261140d565b9150611b4a8361140d565b9250817fffffffffffffffffffffffffffffffffffffffffffffffffffffffffffffffff0483118215151615611b8357611b826117d4565b5b828202905092915050565b6000611b998261140d565b9150611ba48361140d565b9250827fffffffffffffffffffffffffffffffffffffffffffffffffffffffffffffffff03821115611bd957611bd86117d4565b5b828201905092915050565b7f4e487b7100000000000000000000000000000000000000000000000000000000600052603260045260246000fd5b6000611c1e8261140d565b91506000821415611c3257611c316117d4565b5b600182039050919050565b7f537472696e67733a20686578206c656e67746820696e73756666696369656e74600082015250565b6000611c736020836116eb565b9150611c7e82611c3d565b602082019050919050565b60006020820190508181036000830152611ca281611c66565b905091905056fea2646970667358221220cb3c4863946d6935470da3e28a140ef01c699a3d33207e3f0f42266948ea0bcf64736f6c63430008090033",
  "linkReferences": {},
  "deployedLinkReferences": {}
}